:020000040800F2
:10000000F025002029020008790A0008750A000876
:10001000770A00081F040008010D00080000000016
:100020000000000000000000000000002F0C00088D
:1000300021040008000000002D0C0008310C00080D
:10004000430200084302000843020008430200087C
:10005000430200084302000843020008430200086C
:10006000430200084302000843020008430200085C
:10007000430200084302000843020008430200084C
:10008000430200084302000843020008430200083C
:10009000430200084302000843020008430200082C
:1000A000430200084302000843020008430200081C
:1000B000430200084302000843020008430200080C
:1000C00043020008430200084302000843020008FC
:1000D00043020008430200084302000843020008EC
:1000E00043020008430200084302000843020008DC
:1000F00043020008430200084302000843020008CC
:1001000043020008430200084302000843020008BB
:1001100043020008430200084302000843020008AB
:10012000430200084302000843020008430200089B
:10013000430200084302000843020008430200088B
:10014000430200084302000843020008430200087B
:10015000430200084302000843020008430200086B
:10016000430200084302000843020008430200085B
:100170004302000843020008430200080000000098
:10018000430200084302000800F002F800F03CF8C7
:100190000AA090E8000C82448344AAF10107DA45E2
:1001A00001D100F031F8AFF2090EBAE80F0013F0F8
:1001B000010F18BFFB1A43F0010318479C150000FC
:1001C000BC150000103A24BF78C878C1FAD852078D
:1001D00024BF30C830C144BF04680C6070470000C1
:1001E0000023002400250026103A28BF78C1FBD840
:1001F000520728BF30C148BF0B6070471FB501F0E0
:1002000098FA1FBD10B510BD00F0CFF81146FFF7EA
:10021000F5FF00F087FD00F0EDF803B4FFF7F2FF03
:1002200003BC00F0F5F80000094880470948004782
:10023000FEE7FEE7FEE7FEE7FEE7FEE7FEE7FEE796
:10024000FEE7FEE704480549054A064B70470000F3
:10025000C90C000889010008F01F0020F0250020CB
:10026000F0210020F021002053EA020C00F0698008
:100270002DE9F04B4FF00006002B1FBFB3FA83F5BA
:1002800003FA05F424FA05F65E4012BF1643B2FAEB
:1002900082F502FA05F4C5F120051EBF22FA05FC1D
:1002A00044EA0C04203556EA044C4FEA144418BFC3
:1002B000641C4FF000084FF00009904271EB030CF2
:1002C00039D3002919BFB1FA81F701FA07F6B0FA5C
:1002D00080F700FA07F6C7F120071EBF20FA07FCD7
:1002E00046EA0C062037B6FBF4FCA7EB0507103FE7
:1002F00007F01F0BCBF120060CFA0BFB2CFA06F6CD
:1003000044BFB3460026202FA4BF5E464FF0000B2B
:100310005BEA060C08BF4FF0010B19EB0B09ABFBB6
:10032000027C48EB0608C01B06FB02CC0BFB03CC8F
:1003300071EB0C01C1E70B46024641464846BDE859
:10034000F08B13B54FF000004FF00001AFF30080C9
:10035000BDE81C4070474FF0000200B513469446BC
:100360009646203922BFA0E80C50A0E80C50B1F10D
:100370002001BFF4F7AF090728BFA0E80C5048BF21
:100380000CC05DF804EB890028BF40F8042B08BFBF
:10039000704748BF20F8022B11F0804F18BF00F8BB
:1003A000012B7047704770477047754600F02CF876
:1003B000AE4605006946534620F00700854618B052
:1003C00020B5FFF73FFFBDE820404FF000064FF09B
:1003D00000074FF000084FF0000B21F00701AC467A
:1003E000ACE8C009ACE8C009ACE8C009ACE8C00999
:1003F0008D46704710B50446AFF300802046BDE837
:100400001040FFF70ABF000000487047901F00200F
:1004100001491820ABBEFEE7260002007047FEE748
:100420007047000001488068704700000400002009
:1004300002488168027811448160704704000020FE
:100440000B4810B5016841F400710160016841F486
:1004500080610160016841F480710160032000F057
:1004600061F80F2000F006F800F024F8002010BD1D
:10047000003C024070B50D4D04464FF47A71287867
:10048000B1FBF0F00A490968B1FBF0F000F0DEFAC8
:1004900048B9102C07D200222146501E00F022F845
:1004A00000206C6070BD012070BD000004000020C1
:1004B000100000200A4808B5016841F4804101603D
:1004C000006800F4804000900548001F016841F07A
:1004D00080510160006800F08050009008BD00006D
:1004E00044380240F0B40E4B1B680C46C3F30223A1
:1004F000C3F10705042D00D90425191D072901D2D0
:10050000002300E0DB1E012606FA05F1491E21400A
:1005100099409E40761E16403143F0BC00F0F1BB7E
:100520000CED00E0064900F0070208684FF6FF03F3
:10053000184040EA0220034A104308607047000058
:100540000CED00E00000FA052DE9F0470E4605002D
:1005500065D0DFF81481D8F80000F7B200F007008A
:10056000B04207D288F80070D8F8000000F0070009
:10057000B04254D128683D4C810712D5400703D5BD
:10058000206840F4E05020602878000703D52068F8
:1005900040F4604020602068A96820F0F000084323
:1005A00020602878C0072DD03049686808390128B4
:1005B00012D0022813D0032811D009688907002916
:1005C0002DDA216821F0030101432160FFF72AFFA2
:1005D000814641F2883A0EE009688903EFE709682D
:1005E0008901ECE7FFF71EFFA0EB0901514502D995
:1005F0000320BDE8F0872068696800F00C00B0EBCC
:10060000810FEFD1D8F80010404601F00701B14248
:1006100007D90770006800F00700B04201D0012040
:10062000E7E72878400705D52068E96820F4E0501E
:10063000084320602878000706D52068296920F43F
:10064000604040EAC100206000F018F82168084AC4
:10065000C1F30311515CC8400649086006480068B0
:10066000FFF708FF0020C4E7003C024008380240C2
:10067000461700081000002008000020154810B59B
:10068000006810F00C02144813D01449042A0FD04B
:10069000082A0ED10F4C241F2268236802F03F0263
:1006A0005B0207D52068C0F38810A0FB010106E0BB
:1006B000084610BD2168C1F38811A1FB0001002389
:1006C000FFF7D2FD2168C1F30141491C4900B0FB8D
:1006D000F1F010BD083802400024F40040787D019C
:1006E0002DE9F84F04006ED02078DFF84C93C00756
:1006F000A9F104054AD009F104000168C1F38101A0
:10070000012908D00068C0F3810002280AD1D9F875
:100710000000400206D52868800337D560680028AD
:10072000E1D033E06068B0F5803F10D0B0F5A02F85
:10073000286810D020F480302860286820F48020B9
:1007400028606068A8B1FFF76DFE06460DE02868D6
:1007500040F48030F4E740F480202860F7E700BFE1
:10076000FFF760FE801B642873D828688003F7D5E4
:100770000CE0FFF757FE064605E000BFFFF752FE0C
:10078000801B6428F0D828688003F7D42078DFF82D
:10079000AC8280074FF0000A3ED5A748001D0168D3
:1007A00011F00C0F08D00068C0F3810002280BD1B3
:1007B000D9F80000400207D42868800716D5E06801
:1007C000012800D112E033E1E068B8B10120C8F897
:1007D0000000FFF727FE064605E000BFFFF722FEF8
:1007E000801B0228C0D828688007F7D528682169AF
:1007F00020F0F80040EAC10028600DE0C8F800A031
:10080000FFF710FE064604E0FFF70CFE801B0228EF
:100810001FD828688007F7D42078000722D5864F94
:1008200087486169703771B101210160FFF7FAFDF6
:10083000064604E0FFF7F6FD801B022809D8386859
:100840008007F7D50EE0C0F800A0FFF7EBFD0646E5
:1008500005E082E0FFF7E6FD801B02287DD83868BE
:100860008007F7D42078400768D5DFF8CCB100279F
:100870000BF13C0BDBF80000C0000BD4DBF80010E0
:1008800041F08051CBF80010DBF80000012700F0A8
:10089000805000906B4E3068C00510D4306840F432
:1008A00080703060FFF7BEFD009005E0FFF7BAFDF5
:1008B0000099401A022850D83068C005F6D55E4E1F
:1008C000A0686C3601280FD00528306810D020F0C1
:1008D00001003060306820F004003060A068B8B1DA
:1008E000FFF7A0FD00900FE0306840F00100F4E752
:1008F00040F004003060F7E7FFF794FD0099411ADB
:1009000041F28830814266D830688007F4D50EE025
:10091000FFF788FD009007E0FFF784FD0099411A7A
:1009200041F28830814256D830688007F4D42FB124
:10093000DBF8001021F08051CBF80010A069C8B39B
:100940003D49091D0968C1F3810102294AD00228E5
:10095000504607D0C8F8600000E03CE0FFF762FDB9
:1009600004463BE04746C8F86000FFF75BFD0646DB
:1009700005E000BFFFF756FD801B02282BD8286832
:100980008001F7D4D4E907010843A16A2E4A490837
:1009900002EB0141626A41EA8211084394F82C108B
:1009A00040EA0161C9F8001001203866FFF73AFDFE
:1009B000044606E03EE000BFFFF734FD001B0228BE
:1009C00009D828688001F7D534E000BFFFF72AFD79
:1009D000001B022802D90320BDE8F88F2868800197
:1009E000F4D427E00128F7D0D9F80000E26900F438
:1009F000800191421CD1226A00F03F01914217D13F
:100A000047F6C071626A0140B1EB821F10D1A26A41
:100A10004FF0FF3300F4403103EB5202B1EB024FD1
:100A200006D194F82C1000F07060B0EB016F01D08B
:100A30000120D1E70020CFE7043802400000474200
:100A4000800E4742007000400000FFFF10B5401EBE
:100A5000B0F1807F01D3012010BD4FF0E024606130
:100A60000F21601700F04DF90020A06107202061E0
:100A7000002010BDFEE7FEE7FEE700009FED060A3E
:100A800080ED090A80ED0A0A80ED0B0A80ED0C0A60
:100A900080ED0D0A704700000000000070B50446AC
:100AA0002DED0C8BF0EE608A30EE688A90ED000A36
:100AB00020EE08DA90ED0A0A30EE080A10EE100A6D
:100AC00000F0C6FD256A41EC190B284600F0C0FD78
:100AD00041EC1A0B606800F0BBFD9FED501B53EC1E
:100AE000112B00F0CDFB53EC1A2B00F0C9FB53EC9B
:100AF000192B00F0C5FB41EC190B606A00F0A8FD52
:100B000053EC192B00F0BCF900F088F900EE100A44
:100B100084ED090AD4ED070AB4EEE00AF1EE10FA0A
:100B200006DCD4ED060AB4EEE00AF1EE10FA01D2CA
:100B3000C4ED090A284600F08BFDE66841EC190B6C
:100B4000304600F085FD9FED37AB53EC1A2B00F0DB
:100B500097FB53EC192B00F093F994ED0C0A41EC40
:100B60001B0B38EEC00A10EE100A00F071FD41ECCC
:100B7000190BA06800F06CFD53EC1A2B00F080FB01
:100B800053EC192B00F07CFB41EC190BE06A00F0F0
:100B90005FFD41EC1C0B304600F05AFD53EC1A2B64
:100BA00000F06EFB41EC1A0B284600F051FD53ECAF
:100BB0001A2B00F063FC53EC1C2B00F061FB53EC90
:100BC000192B00F05BFC53EC1B2B00F001FA00F03A
:100BD00025F900EE100A84ED0B0AD4ED090A70EE37
:100BE0008D0A30EE800A84ED0D0AD4ED050AB4EECC
:100BF000E00AF1EE10FA06DCD4ED040AB4EEE00AE5
:100C0000F1EE10FA01D2C4ED0D0A84ED0A8AC4EDAA
:100C10000C8A94ED0D0ABDEC0C8B70BD0000000039
:100C20000000E03F000000000000004070477047F7
:100C3000FFF7FEBB30B593B030216846FFF78BFB62
:100C400014210CA8FFF787FB1D480025016841F01F
:100C500080510160006800F08050119019480168CF
:100C600041F4804101600068022400F4804011904A
:100C70000120039010200490009406940820CDE9F0
:100C80000750A820CDE9090404200B906846FFF71F
:100C900027FD08B172B6FEE70CA90F2081E83100EC
:100CA0004FF4A0500F904FF48050109005210CA8E5
:100CB000FFF74AFC002801D072B6FEE713B030BD42
:100CC00040380240007000400248016841F4700161
:100CD0000160704788ED00E006489FED071AD0EDEF
:100CE000000A40EE010A9FED051A80EE810A80EDB0
:100CF000000A7047000000200AD7233C8E06803F80
:100D0000FEE70907090E002804DB00F1E02080F867
:100D10000014704700F00F0000F1E02080F8141D6F
:100D2000704700002DED048B82B0FFF789FBFFF7C1
:100D300081FF3448016841F080010160016801F0E1
:100D400080010091016841F00101016000682E4CB2
:100D500000F00100B0EE000A009084ED000AB6EE4B
:100D6000000A84ED010AB5EE000A84ED020A9FED47
:100D7000270ADFED279A84ED030AB2EE040A84ED18
:100D8000050ABAEE040A84ED040AB1EE040A84ED01
:100D9000070AB9EE040A84ED060AC4ED089A204653
:100DA000FFF76CFEB0EE089A00259FED1A8A04F159
:100DB000380704F6D878184E1FE000BF94ED0D0AEE
:100DC000FFF78AFFF0EE408AB0EE490AF0EE680ABB
:100DD0000D48FFF763FE18EE900A00F039FC07EBB0
:100DE000C502C2E90001606B00F032FC08EBC502ED
:100DF00038EE298AC2E900016D1C18EE100AB042D3
:100E0000DCDDFEE730380240180000200AD7A33CA2
:100E10000AD7233C000000000000A04021F000425F
:100E2000A2F16052B2F5801F01F0004328BFD2F159
:100E30007F6C0BD95FEA001C43EAC20242EB5070A0
:100E400018BF704728BF20F001007047B2F5801F1F
:100E5000BCBF184670474FEA410C1CF5001F02D278
:100E6000084600F06BBC70B500F0B4FA00000089D1
:100E7000FFF7F6BF4FF00040A0F58000704700007C
:100E800010B591EA030F48BF83F0004300F1FE82E2
:100E9000841A71EB030C05D2121943EB0C03001BEF
:100EA00061EB0C01DFF824E14FEA1154A4EB135C71
:100EB0001EEA430F18BF9EEA445F73D023EA0E0375
:100EC000DCF1200E21EA045143F4801332D322FADC
:100ED0000CFE10EB0E0023FA0CFE41EB0E01CCF1E0
:100EE000200E03FA0EFE10EB0E0051F10001B1F5D9
:100EF000801FCCF1200E32D201EB045112FA0EF217
:100F0000BDE8104058BF7047401C38BF5FEA42023E
:100F100018BF7047002814BF20F0010041F1000104
:100F20004FEA410313F5001F38BF7047A1F1C041DC
:100F300000F09EBA012A43EB0302ACF1200CDCF175
:100F40001F0E32BF4FF0000E23FA0CF310EB03001C
:100F500041EB0451B4EB115FD0D0A1EB045101F58A
:100F6000801149085FEA300001EB04510ED350F1C3
:100F7000000038BF12FA0EFE08D1BDE81040C9E7E4
:100F8000401C38BF5FEA4202CAD1C3E7BDE8104047
:100F90004FEA410313F5001F38BF7047A1F1C0416C
:100FA00000F066BA9EEA445F08D011EA5E0FBDE821
:100FB000104004BF01F0004100207047BDE8104020
:100FC00070B500F007FA00BF64FBBE3E0000E0FF12
:100FD0002DE9C04130B4DFF8A0C23CEA111418BFBB
:100FE0003CEA131400F0EC8081EA03051CEA1114BA
:100FF00044EAD57418BF1CEA131500F0C780A4EBAF
:1010000005044FF0004545EAC12145EAC32341EA02
:10101000505143EA525304F17F74994204F500346D
:101020004FEAC0204FEAC22208BF904200F09C80E5
:101030004FEA13650FF24016765D4FEA134506FB43
:1010400005F7C7F1807706FB07F74FEAD737A7FB0D
:1010500003687642C8F58038A7FB06CE38BFA8F1F2
:10106000010807FB08E64FF0000EA6FB028CE6FB2A
:1010700003CEDCF1000CCEF1004E38BFAEF1010E14
:10108000A6FB0C584FF000074FF00005E6FB0E875B
:10109000A1FB08C6A0FB07CE16EB0E0645F1000526
:1010A000E1FB076515F1E04E7EBFA4F580345FEAF1
:1010B00046066D4116F1800745F100054FEA1727F6
:1010C0004FEA066647EA0567A6F1DE46B6F1805F9D
:1010D0004FEA15251FD9384624F0010C05EBC471E1
:1010E000BCF1FE6F01EB0C1102D8F0BCBDE8008131
:1010F00024425CBF01F5801E9EEAC47F02D4F0BC8E
:10110000BDE80081244238D4F0BCA1F1C041BDE863
:10111000004100F0ADB94FEAD22242EA43524FEA11
:10112000D323A7FB02864FEAD02040EA415007FBB9
:1011300003661EEA0E0F4FEAD12105FB026658BF77
:10114000A6EB0056B6EB00564FEA520E4EEAC37EAF
:1011500018EB0E0E56EB530EBDD518EB02085E4190
:101160007F1C55F10005B6E74FF480154FF00007DE
:101170004FF000064FF00008ADE7F0BC4FF0000064
:1011800001F1C04101F00041BDE8008111EA0C1FEE
:101190000CEA131500D00CE013EA0C1F00F02580B8
:1011A0004FF00000F0BC81EA030101F00041BDE80E
:1011B0000081F0BCBDE8004181EA030100F058B9AC
:1011C000F0BCBDE8004170B500F004F9097EFC3EBA
:1011D00000F007B881EA03014FF0000001F0004180
:1011E000704781EA030100F043B9F0BCBDE800415B
:1011F0004FF0000021497047FFFDFBF9F7F5F4F2CD
:10120000F0EEEDEBE9E8E6E4E3E1E0DEDDDBDAD8A1
:10121000D7D5D4D3D1D0CFCDCCCBCAC8C7C6C5C4FF
:10122000C2C1C0BFBEBDBCBBBAB9B8B7B6B5B4B316
:10123000B2B1B0AFAEADACABAAA9A8A8A7A6A5A401
:10124000A3A3A2A1A09F9F9E9D9C9C9B9A999998C5
:101250009797969595949393929191908F8F8E8E68
:101260008D8C8C8B8B8A89898888878786858584F5
:1012700084838382828181800000FF070000F87FE1
:10128000DFF848C170B51CEA111E1EBF1CEA131519
:101290009EEA0C0F95EA0C0F00F06F8081EA0304C0
:1012A00023EA4C134EEAD47E21EA4C1141F480111A
:1012B00043F48013AE44A1FB024CA0FB0365AEF1E6
:1012C0007F7E361955EB0C05A1FB034C4CF1000356
:1012D000A0FB021C16EB0C06654153F1000309420A
:1012E00018BF46F0010613F4007F0BD14FEA03311B
:1012F0004FEA0530340341EA155140EA16506FF0C9
:1013000003020AE04FEAC3214FEAC520F40241EA92
:10131000555140EA56506FF0020202EB2E4201EBAB
:10132000025585EACE710AD05FEA440C18BF24F05A
:10133000004450F1000041F1000120EAD47040F275
:10134000FE7C624500D270BDA84214BF4FF08044BD
:101350004FF04044002E08BF0024BEF1806FA8BFAC
:10136000A1F1C041BDE8704080F282804FF00000E2
:1013700001F1C04101F0004170479EEA0C0F0CEAF8
:10138000131518BF95EA0C0F06D04FF0000081EA44
:10139000030E0EF0004170BD00F01CF88900013E04
:1013A00000F007B800F009B84FEA430C5FEA5C5C54
:1013B00008D081EA030100F05BB84FEA410C5FEA14
:1013C0005C5CF6D14FF00000014970470000FF0758
:1013D0000000F87F0EF1020E2EF0030E5EF8046B93
:1013E000364205D4012A43EB030515F5001F12D838
:1013F000012841EB010C1CF5001F0CD80ED14FEA5F
:10140000D17C15F5001F0CEB4C0C0CF1020C08BF45
:101410004CEBD37C04E04FF0080C01E04FEAD37CA6
:101420000CEB4C0526FA05F606F00706B6F1040C9F
:1014300006D20EEB860CBDE870404CF0010C604704
:10144000DFE80CF0090B02024FF000414FF0000002
:10145000A1F5002170BD19461046012851EB010489
:1014600018BFD4F5001484BF002001F0004170BD06
:101470000808A0F500114FEA3101704710B591EA54
:10148000030F48BF83F000433FF502AD841A71EBB0
:10149000030C07D212198CF0004C43EB0C03001B19
:1014A00061EB0C01DFF8A4E14FEA1154A4EB135CEB
:1014B0001EEA430F18BF9EEA445F00F0B08023EAA3
:1014C0006E03524221EA0451C3EB6E0338BF5B1E28
:1014D000DCF1200E25D322FA0CFE10EB0E0043FAAD
:1014E0000CFE41EB0E01CCF1200E03FA0EFE10EBC8
:1014F0000E0051F10001CCF1200E29D412FA0EF2A7
:1015000001EB0451BDE8104058BF7047401C1CBFA0
:10151000B2F1004F704700280CBF491C20F00100B9
:10152000704712EB020E43EB030218BF4FF0010E9F
:101530004EEA4202ACF1200CDCF11E0E54D943FA03
:101540000CFE10EB0E0051F1FF31CCF11E0ED5D583
:101550000EF1010E12FA0EFE404141EB010101EBCA
:10156000445C5FEA5C5C10D910EBDE7001EB045167
:1015700038BFBEF1004FBDE8104018BF70470028CB
:101580000CBF491C20F00100704730D24FEAD42C28
:1015900011F5001124F400641BD0B1FA81F20B3A6A
:1015A000A41AA41ED2F12003914030FA03F3194388
:1015B000904001EBCC71002C01EB0451BDE81040D0
:1015C000A8BF704701F1C0414FF0000001F0004199
:1015D0007047B0FA80F310FA03F100D110BDE41A9D
:1015E000173C4805C90AE4E701EB045110BD491056
:1015F00001EB0451BDE810404FEA300002E04FF02B
:10160000000170474A0008BF0042F8D0B2F5001F41
:1016100028BF704701F000414FF0000070479EEA7C
:10162000445F07D011EA5E0FBDE8104004BF0021FF
:1016300000207047BDE8104070B5FFF7CBFE00BF3B
:1016400040DFF63E83F00041104670470000E0FFA7
:1016500043004FEAD30C4FEA3C0C43401FBF400706
:101660000CF1605113F0FE4F70471CF0006F03D176
:1016700000200CF0004170470CF0004343EA50702A
:1016800010B540EACC0000F00EF800BF0000009258
:101690004FEA0001FFF7ECBE4FF000414FF00000B1
:1016A000A1F5002170470EF1020E2EF0030E5EF838
:1016B000044B244204D44FEA4102B2F17F4F11D8C7
:1016C0004FEA4003B3F17F4F0CD80ED14FEAD07CE4
:1016D000B2F17F4F0CEB4C0C0CF1020C08BF4CEB41
:1016E000D17C04E04FF0080C01E04FEAD17C0CEB18
:1016F0004C0324FA03F404F00704B4F1040C06D2FA
:101700000EEB840CBDE810404CF0010C6047DFE8A4
:101710000CF0070802024FF00040A0F5800010BD59
:101720000846420018BFD2F1807288BF00F0004026
:1017300010BD4FF04070E1EE100A7047FF2141EA02
:10174000D050C005704700000000000000000102FA
:1017500003040607080900007817000800000020AD
:1017600014000000C40100088C17000814000020B9
:10177000DC250000E001000800000000010000007E
:0C17800010000000000000000024F40035
:040000050800018965
:00000001FF
